{
  "_format": "hh-sol-artifact-1",
  "contractName": "JewelChain",
  "sourceName": "contracts/JewelChain.sol",
  "abi": [
    {
      "anonymous": false,
      "inputs": [
        {
          "indexed": true,
          "internalType": "address",
          "name": "owner",
          "type": "address"
        },
        {
          "indexed": false,
          "internalType": "uint256",
          "name": "stoneId",
          "type": "uint256"
        }
      ],
      "name": "NewStoneRegistered",
      "type": "event"
    },
    {
      "inputs": [
        {
          "internalType": "uint256",
          "name": "stoneId",
          "type": "uint256"
        },
        {
          "internalType": "string",
          "name": "actionLocation",
          "type": "string"
        },
        {
          "internalType": "string",
          "name": "description",
          "type": "string"
        }
      ],
      "name": "addStep",
      "outputs": [],
      "stateMutability": "nonpayable",
      "type": "function"
    },
    {
      "inputs": [
        {
          "internalType": "address",
          "name": "participantAddress",
          "type": "address"
        }
      ],
      "name": "getParticipanInformation",
      "outputs": [
        {
          "internalType": "string",
          "name": "participantName",
          "type": "string"
        }
      ],
      "stateMutability": "view",
      "type": "function"
    },
    {
      "inputs": [
        {
          "internalType": "uint256",
          "name": "stoneId",
          "type": "uint256"
        }
      ],
      "name": "getStoneInformation",
      "outputs": [
        {
          "components": [
            {
              "internalType": "uint256",
              "name": "stoneId",
              "type": "uint256"
            },
            {
              "internalType": "uint256",
              "name": "timestamp",
              "type": "uint256"
            },
            {
              "internalType": "string",
              "name": "origin",
              "type": "string"
            },
            {
              "internalType": "string",
              "name": "characteristic",
              "type": "string"
            },
            {
              "internalType": "address",
              "name": "miner",
              "type": "address"
            },
            {
              "internalType": "address",
              "name": "owner",
              "type": "address"
            },
            {
              "components": [
                {
                  "internalType": "address",
                  "name": "responsibleParty",
                  "type": "address"
                },
                {
                  "internalType": "string",
                  "name": "actionLocation",
                  "type": "string"
                },
                {
                  "internalType": "string",
                  "name": "description",
                  "type": "string"
                },
                {
                  "internalType": "uint256",
                  "name": "timestamp",
                  "type": "uint256"
                }
              ],
              "internalType": "struct JewelChain.SupplyChainStep[]",
              "name": "supplyChainSteps",
              "type": "tuple[]"
            }
          ],
          "internalType": "struct JewelChain.Stone",
          "name": "stone",
          "type": "tuple"
        }
      ],
      "stateMutability": "view",
      "type": "function"
    },
    {
      "inputs": [
        {
          "internalType": "uint256",
          "name": "stoneId",
          "type": "uint256"
        },
        {
          "internalType": "address",
          "name": "newOwner",
          "type": "address"
        }
      ],
      "name": "passOwnership",
      "outputs": [],
      "stateMutability": "nonpayable",
      "type": "function"
    },
    {
      "inputs": [
        {
          "internalType": "string",
          "name": "participantName",
          "type": "string"
        }
      ],
      "name": "registerNewParticipant",
      "outputs": [],
      "stateMutability": "nonpayable",
      "type": "function"
    },
    {
      "inputs": [
        {
          "internalType": "string",
          "name": "origin",
          "type": "string"
        },
        {
          "internalType": "string",
          "name": "characteristic",
          "type": "string"
        }
      ],
      "name": "registerNewStone",
      "outputs": [],
      "stateMutability": "nonpayable",
      "type": "function"
    }
  ],
  "bytecode": "0x608060405234801561001057600080fd5b506114c8806100206000396000f3fe608060405234801561001057600080fd5b50600436106100625760003560e01c80633750b836146100675780635bb3c096146100975780636210921d146100b35780639ba78d81146100cf578063a6cd5745146100eb578063fee23bd71461011b575b600080fd5b610081600480360381019061007c9190610ad0565b610137565b60405161008e9190610db3565b60405180910390f35b6100b160048036038101906100ac9190610f0a565b61053f565b005b6100cd60048036038101906100c89190610f95565b6106d3565b005b6100e960048036038101906100e4919061100a565b610723565b005b6101056004803603810190610100919061104a565b61080a565b60405161011291906110c1565b60405180910390f35b610135600480360381019061013091906110e3565b6108e1565b005b61013f610a1d565b60008083815481106101545761015361115b565b5b90600052602060002090600702016040518060e00160405290816000820154815260200160018201548152602001600282018054610191906111b9565b80601f01602080910402602001604051908101604052809291908181526020018280546101bd906111b9565b801561020a5780601f106101df5761010080835404028352916020019161020a565b820191906000526020600020905b8154815290600101906020018083116101ed57829003601f168201915b50505050508152602001600382018054610223906111b9565b80601f016020809104026020016040519081016040528092919081815260200182805461024f906111b9565b801561029c5780601f106102715761010080835404028352916020019161029c565b820191906000526020600020905b81548152906001019060200180831161027f57829003601f168201915b505050505081526020016004820160009054906101000a900473ffffffffffffffffffffffffffffffffffffffff1673ffffffffffffffffffffffffffffffffffffffff1673ffffffffffffffffffffffffffffffffffffffff1681526020016005820160009054906101000a900473ffffffffffffffffffffffffffffffffffffffff1673ffffffffffffffffffffffffffffffffffffffff1673ffffffffffffffffffffffffffffffffffffffff16815260200160068201805480602002602001604051908101604052809291908181526020016000905b8282101561052c57838290600052602060002090600402016040518060800160405290816000820160009054906101000a900473ffffffffffffffffffffffffffffffffffffffff1673ffffffffffffffffffffffffffffffffffffffff1673ffffffffffffffffffffffffffffffffffffffff1681526020016001820180546103ff906111b9565b80601f016020809104026020016040519081016040528092919081815260200182805461042b906111b9565b80156104785780601f1061044d57610100808354040283529160200191610478565b820191906000526020600020905b81548152906001019060200180831161045b57829003601f168201915b50505050508152602001600282018054610491906111b9565b80601f01602080910402602001604051908101604052809291908181526020018280546104bd906111b9565b801561050a5780601f106104df5761010080835404028352916020019161050a565b820191906000526020600020905b8154815290600101906020018083116104ed57829003601f168201915b5050505050815260200160038201548152505081526020019060010190610376565b5050505081525050905080915050919050565b823373ffffffffffffffffffffffffffffffffffffffff166000828154811061056b5761056a61115b565b5b906000526020600020906007020160050160009054906101000a900473ffffffffffffffffffffffffffffffffffffffff1673ffffffffffffffffffffffffffffffffffffffff16146105bd57600080fd5b60004290506000339050600086815481106105db576105da61115b565b5b906000526020600020906007020160060160405180608001604052808373ffffffffffffffffffffffffffffffffffffffff16815260200187815260200186815260200184815250908060018154018082558091505060019003906000526020600020906004020160009091909190915060008201518160000160006101000a81548173ffffffffffffffffffffffffffffffffffffffff021916908373ffffffffffffffffffffffffffffffffffffffff16021790555060208201518160010190816106a89190611396565b5060408201518160020190816106be9190611396565b50606082015181600301555050505050505050565b80600160003373ffffffffffffffffffffffffffffffffffffffff1673ffffffffffffffffffffffffffffffffffffffff168152602001908152602001600020908161071f9190611396565b5050565b813373ffffffffffffffffffffffffffffffffffffffff166000828154811061074f5761074e61115b565b5b906000526020600020906007020160050160009054906101000a900473ffffffffffffffffffffffffffffffffffffffff1673ffffffffffffffffffffffffffffffffffffffff16146107a157600080fd5b81600084815481106107b6576107b561115b565b5b906000526020600020906007020160050160006101000a81548173ffffffffffffffffffffffffffffffffffffffff021916908373ffffffffffffffffffffffffffffffffffffffff160217905550505050565b60606000600160008473ffffffffffffffffffffffffffffffffffffffff1673ffffffffffffffffffffffffffffffffffffffff1681526020019081526020016000208054610858906111b9565b80601f0160208091040260200160405190810160405280929190818152602001828054610884906111b9565b80156108d15780601f106108a6576101008083540402835291602001916108d1565b820191906000526020600020905b8154815290600101906020018083116108b457829003601f168201915b5050505050905080915050919050565b6000808054905090506000806001816001815401808255809150500390600052602060002090600702019050818160000181905550428160010181905550838160020190816109309190611396565b50828160030190816109429190611396565b50338160040160006101000a81548173ffffffffffffffffffffffffffffffffffffffff021916908373ffffffffffffffffffffffffffffffffffffffff160217905550338160050160006101000a81548173ffffffffffffffffffffffffffffffffffffffff021916908373ffffffffffffffffffffffffffffffffffffffff1602179055503373ffffffffffffffffffffffffffffffffffffffff167f9dc6dd80448bac528649bfc7c455356256a6c274a277cc2f8c564217aba2219a83604051610a0f9190611477565b60405180910390a250505050565b6040518060e0016040528060008152602001600081526020016060815260200160608152602001600073ffffffffffffffffffffffffffffffffffffffff168152602001600073ffffffffffffffffffffffffffffffffffffffff168152602001606081525090565b6000604051905090565b600080fd5b600080fd5b6000819050919050565b610aad81610a9a565b8114610ab857600080fd5b50565b600081359050610aca81610aa4565b92915050565b600060208284031215610ae657610ae5610a90565b5b6000610af484828501610abb565b91505092915050565b610b0681610a9a565b82525050565b600081519050919050565b600082825260208201905092915050565b60005b83811015610b46578082015181840152602081019050610b2b565b60008484015250505050565b6000601f19601f8301169050919050565b6000610b6e82610b0c565b610b788185610b17565b9350610b88818560208601610b28565b610b9181610b52565b840191505092915050565b600073ffffffffffffffffffffffffffffffffffffffff82169050919050565b6000610bc782610b9c565b9050919050565b610bd781610bbc565b82525050565b600081519050919050565b600082825260208201905092915050565b6000819050602082019050919050565b6000608083016000830151610c216000860182610bce565b5060208301518482036020860152610c398282610b63565b91505060408301518482036040860152610c538282610b63565b9150506060830151610c686060860182610afd565b508091505092915050565b6000610c7f8383610c09565b905092915050565b6000602082019050919050565b6000610c9f82610bdd565b610ca98185610be8565b935083602082028501610cbb85610bf9565b8060005b85811015610cf75784840389528151610cd88582610c73565b9450610ce383610c87565b925060208a01995050600181019050610cbf565b50829750879550505050505092915050565b600060e083016000830151610d216000860182610afd565b506020830151610d346020860182610afd565b5060408301518482036040860152610d4c8282610b63565b91505060608301518482036060860152610d668282610b63565b9150506080830151610d7b6080860182610bce565b5060a0830151610d8e60a0860182610bce565b5060c083015184820360c0860152610da68282610c94565b9150508091505092915050565b60006020820190508181036000830152610dcd8184610d09565b905092915050565b600080fd5b600080fd5b7f4e487b7100000000000000000000000000000000000000000000000000000000600052604160045260246000fd5b610e1782610b52565b810181811067ffffffffffffffff82111715610e3657610e35610ddf565b5b80604052505050565b6000610e49610a86565b9050610e558282610e0e565b919050565b600067ffffffffffffffff821115610e7557610e74610ddf565b5b610e7e82610b52565b9050602081019050919050565b82818337600083830152505050565b6000610ead610ea884610e5a565b610e3f565b905082815260208101848484011115610ec957610ec8610dda565b5b610ed4848285610e8b565b509392505050565b600082601f830112610ef157610ef0610dd5565b5b8135610f01848260208601610e9a565b91505092915050565b600080600060608486031215610f2357610f22610a90565b5b6000610f3186828701610abb565b935050602084013567ffffffffffffffff811115610f5257610f51610a95565b5b610f5e86828701610edc565b925050604084013567ffffffffffffffff811115610f7f57610f7e610a95565b5b610f8b86828701610edc565b9150509250925092565b600060208284031215610fab57610faa610a90565b5b600082013567ffffffffffffffff811115610fc957610fc8610a95565b5b610fd584828501610edc565b91505092915050565b610fe781610bbc565b8114610ff257600080fd5b50565b60008135905061100481610fde565b92915050565b6000806040838503121561102157611020610a90565b5b600061102f85828601610abb565b925050602061104085828601610ff5565b9150509250929050565b6000602082840312156110605761105f610a90565b5b600061106e84828501610ff5565b91505092915050565b600082825260208201905092915050565b600061109382610b0c565b61109d8185611077565b93506110ad818560208601610b28565b6110b681610b52565b840191505092915050565b600060208201905081810360008301526110db8184611088565b905092915050565b600080604083850312156110fa576110f9610a90565b5b600083013567ffffffffffffffff81111561111857611117610a95565b5b61112485828601610edc565b925050602083013567ffffffffffffffff81111561114557611144610a95565b5b61115185828601610edc565b9150509250929050565b7f4e487b7100000000000000000000000000000000000000000000000000000000600052603260045260246000fd5b7f4e487b7100000000000000000000000000000000000000000000000000000000600052602260045260246000fd5b600060028204905060018216806111d157607f821691505b6020821081036111e4576111e361118a565b5b50919050565b60008190508160005260206000209050919050565b60006020601f8301049050919050565b600082821b905092915050565b60006008830261124c7fffffffffffffffffffffffffffffffffffffffffffffffffffffffffffffffff8261120f565b611256868361120f565b95508019841693508086168417925050509392505050565b6000819050919050565b600061129361128e61128984610a9a565b61126e565b610a9a565b9050919050565b6000819050919050565b6112ad83611278565b6112c16112b98261129a565b84845461121c565b825550505050565b600090565b6112d66112c9565b6112e18184846112a4565b505050565b5b81811015611305576112fa6000826112ce565b6001810190506112e7565b5050565b601f82111561134a5761131b816111ea565b611324846111ff565b81016020851015611333578190505b61134761133f856111ff565b8301826112e6565b50505b505050565b600082821c905092915050565b600061136d6000198460080261134f565b1980831691505092915050565b6000611386838361135c565b9150826002028217905092915050565b61139f82610b0c565b67ffffffffffffffff8111156113b8576113b7610ddf565b5b6113c282546111b9565b6113cd828285611309565b600060209050601f83116001811461140057600084156113ee578287015190505b6113f8858261137a565b865550611460565b601f19841661140e866111ea565b60005b8281101561143657848901518255600182019150602085019450602081019050611411565b86831015611453578489015161144f601f89168261135c565b8355505b6001600288020188555050505b505050505050565b61147181610a9a565b82525050565b600060208201905061148c6000830184611468565b9291505056fea26469706673582212207d560efa616f28857cd7bdb960170bee6e31f0cbd9b2f59529c2b6ed3c0f33c464736f6c63430008110033",
  "linkReferences": {},
  "deployedLinkReferences": {}
}