{
  "_format": "hh-sol-artifact-1",
  "contractName": "JewelChain",
  "sourceName": "contracts/JewelChain.sol",
  "abi": [
    {
      "anonymous": false,
      "inputs": [
        {
          "indexed": false,
          "internalType": "address",
          "name": "owner",
          "type": "address"
        },
        {
          "indexed": false,
          "internalType": "uint256",
          "name": "stoneId",
          "type": "uint256"
        }
      ],
      "name": "NewStoneRegistered",
      "type": "event"
    },
    {
      "inputs": [
        {
          "internalType": "uint256",
          "name": "stoneId",
          "type": "uint256"
        },
        {
          "internalType": "string",
          "name": "actionLocation",
          "type": "string"
        },
        {
          "internalType": "string",
          "name": "description",
          "type": "string"
        }
      ],
      "name": "addStep",
      "outputs": [],
      "stateMutability": "nonpayable",
      "type": "function"
    },
    {
      "inputs": [
        {
          "internalType": "address",
          "name": "participantAddress",
          "type": "address"
        }
      ],
      "name": "getParticipanInformation",
      "outputs": [
        {
          "internalType": "string",
          "name": "participantName",
          "type": "string"
        }
      ],
      "stateMutability": "view",
      "type": "function"
    },
    {
      "inputs": [
        {
          "internalType": "uint256",
          "name": "stoneId",
          "type": "uint256"
        }
      ],
      "name": "getStoneInformation",
      "outputs": [
        {
          "components": [
            {
              "internalType": "uint256",
              "name": "stoneId",
              "type": "uint256"
            },
            {
              "internalType": "uint256",
              "name": "timestamp",
              "type": "uint256"
            },
            {
              "internalType": "string",
              "name": "origin",
              "type": "string"
            },
            {
              "internalType": "string",
              "name": "characteristic",
              "type": "string"
            },
            {
              "internalType": "address",
              "name": "miner",
              "type": "address"
            },
            {
              "internalType": "address",
              "name": "owner",
              "type": "address"
            },
            {
              "components": [
                {
                  "internalType": "address",
                  "name": "responsibleParty",
                  "type": "address"
                },
                {
                  "internalType": "string",
                  "name": "actionLocation",
                  "type": "string"
                },
                {
                  "internalType": "string",
                  "name": "description",
                  "type": "string"
                },
                {
                  "internalType": "uint256",
                  "name": "timestamp",
                  "type": "uint256"
                }
              ],
              "internalType": "struct JewelChain.SupplyChainStep[]",
              "name": "supplyChainSteps",
              "type": "tuple[]"
            }
          ],
          "internalType": "struct JewelChain.Stone",
          "name": "stone",
          "type": "tuple"
        }
      ],
      "stateMutability": "view",
      "type": "function"
    },
    {
      "inputs": [
        {
          "internalType": "uint256",
          "name": "stoneId",
          "type": "uint256"
        },
        {
          "internalType": "address",
          "name": "newOwner",
          "type": "address"
        }
      ],
      "name": "passOwnership",
      "outputs": [],
      "stateMutability": "nonpayable",
      "type": "function"
    },
    {
      "inputs": [
        {
          "internalType": "string",
          "name": "participantName",
          "type": "string"
        }
      ],
      "name": "registerNewParticipant",
      "outputs": [],
      "stateMutability": "nonpayable",
      "type": "function"
    },
    {
      "inputs": [
        {
          "internalType": "string",
          "name": "origin",
          "type": "string"
        },
        {
          "internalType": "string",
          "name": "characteristic",
          "type": "string"
        }
      ],
      "name": "registerNewStone",
      "outputs": [],
      "stateMutability": "nonpayable",
      "type": "function"
    }
  ],
  "bytecode": "0x608060405234801561001057600080fd5b506114d0806100206000396000f3fe608060405234801561001057600080fd5b50600436106100625760003560e01c80633750b836146100675780635bb3c096146100975780636210921d146100b35780639ba78d81146100cf578063a6cd5745146100eb578063fee23bd71461011b575b600080fd5b610081600480360381019061007c9190610abb565b610137565b60405161008e9190610d9e565b60405180910390f35b6100b160048036038101906100ac9190610ef5565b61053f565b005b6100cd60048036038101906100c89190610f80565b6106d3565b005b6100e960048036038101906100e49190610ff5565b610723565b005b61010560048036038101906101009190611035565b61080a565b60405161011291906110ac565b60405180910390f35b610135600480360381019061013091906110ce565b6108e1565b005b61013f610a08565b600080838154811061015457610153611146565b5b90600052602060002090600702016040518060e00160405290816000820154815260200160018201548152602001600282018054610191906111a4565b80601f01602080910402602001604051908101604052809291908181526020018280546101bd906111a4565b801561020a5780601f106101df5761010080835404028352916020019161020a565b820191906000526020600020905b8154815290600101906020018083116101ed57829003601f168201915b50505050508152602001600382018054610223906111a4565b80601f016020809104026020016040519081016040528092919081815260200182805461024f906111a4565b801561029c5780601f106102715761010080835404028352916020019161029c565b820191906000526020600020905b81548152906001019060200180831161027f57829003601f168201915b505050505081526020016004820160009054906101000a900473ffffffffffffffffffffffffffffffffffffffff1673ffffffffffffffffffffffffffffffffffffffff1673ffffffffffffffffffffffffffffffffffffffff1681526020016005820160009054906101000a900473ffffffffffffffffffffffffffffffffffffffff1673ffffffffffffffffffffffffffffffffffffffff1673ffffffffffffffffffffffffffffffffffffffff16815260200160068201805480602002602001604051908101604052809291908181526020016000905b8282101561052c57838290600052602060002090600402016040518060800160405290816000820160009054906101000a900473ffffffffffffffffffffffffffffffffffffffff1673ffffffffffffffffffffffffffffffffffffffff1673ffffffffffffffffffffffffffffffffffffffff1681526020016001820180546103ff906111a4565b80601f016020809104026020016040519081016040528092919081815260200182805461042b906111a4565b80156104785780601f1061044d57610100808354040283529160200191610478565b820191906000526020600020905b81548152906001019060200180831161045b57829003601f168201915b50505050508152602001600282018054610491906111a4565b80601f01602080910402602001604051908101604052809291908181526020018280546104bd906111a4565b801561050a5780601f106104df5761010080835404028352916020019161050a565b820191906000526020600020905b8154815290600101906020018083116104ed57829003601f168201915b5050505050815260200160038201548152505081526020019060010190610376565b5050505081525050905080915050919050565b823373ffffffffffffffffffffffffffffffffffffffff166000828154811061056b5761056a611146565b5b906000526020600020906007020160050160009054906101000a900473ffffffffffffffffffffffffffffffffffffffff1673ffffffffffffffffffffffffffffffffffffffff16146105bd57600080fd5b60004290506000339050600086815481106105db576105da611146565b5b906000526020600020906007020160060160405180608001604052808373ffffffffffffffffffffffffffffffffffffffff16815260200187815260200186815260200184815250908060018154018082558091505060019003906000526020600020906004020160009091909190915060008201518160000160006101000a81548173ffffffffffffffffffffffffffffffffffffffff021916908373ffffffffffffffffffffffffffffffffffffffff16021790555060208201518160010190816106a89190611381565b5060408201518160020190816106be9190611381565b50606082015181600301555050505050505050565b80600160003373ffffffffffffffffffffffffffffffffffffffff1673ffffffffffffffffffffffffffffffffffffffff168152602001908152602001600020908161071f9190611381565b5050565b813373ffffffffffffffffffffffffffffffffffffffff166000828154811061074f5761074e611146565b5b906000526020600020906007020160050160009054906101000a900473ffffffffffffffffffffffffffffffffffffffff1673ffffffffffffffffffffffffffffffffffffffff16146107a157600080fd5b81600084815481106107b6576107b5611146565b5b906000526020600020906007020160050160006101000a81548173ffffffffffffffffffffffffffffffffffffffff021916908373ffffffffffffffffffffffffffffffffffffffff160217905550505050565b60606000600160008473ffffffffffffffffffffffffffffffffffffffff1673ffffffffffffffffffffffffffffffffffffffff1681526020019081526020016000208054610858906111a4565b80601f0160208091040260200160405190810160405280929190818152602001828054610884906111a4565b80156108d15780601f106108a6576101008083540402835291602001916108d1565b820191906000526020600020905b8154815290600101906020018083116108b457829003601f168201915b5050505050905080915050919050565b6000808054905090506000806001816001815401808255809150500390600052602060002090600702019050818160000181905550428160010181905550838160020190816109309190611381565b50828160030190816109429190611381565b50338160040160006101000a81548173ffffffffffffffffffffffffffffffffffffffff021916908373ffffffffffffffffffffffffffffffffffffffff160217905550338160050160006101000a81548173ffffffffffffffffffffffffffffffffffffffff021916908373ffffffffffffffffffffffffffffffffffffffff1602179055507f9dc6dd80448bac528649bfc7c455356256a6c274a277cc2f8c564217aba2219a33836040516109fa929190611471565b60405180910390a150505050565b6040518060e0016040528060008152602001600081526020016060815260200160608152602001600073ffffffffffffffffffffffffffffffffffffffff168152602001600073ffffffffffffffffffffffffffffffffffffffff168152602001606081525090565b6000604051905090565b600080fd5b600080fd5b6000819050919050565b610a9881610a85565b8114610aa357600080fd5b50565b600081359050610ab581610a8f565b92915050565b600060208284031215610ad157610ad0610a7b565b5b6000610adf84828501610aa6565b91505092915050565b610af181610a85565b82525050565b600081519050919050565b600082825260208201905092915050565b60005b83811015610b31578082015181840152602081019050610b16565b60008484015250505050565b6000601f19601f8301169050919050565b6000610b5982610af7565b610b638185610b02565b9350610b73818560208601610b13565b610b7c81610b3d565b840191505092915050565b600073ffffffffffffffffffffffffffffffffffffffff82169050919050565b6000610bb282610b87565b9050919050565b610bc281610ba7565b82525050565b600081519050919050565b600082825260208201905092915050565b6000819050602082019050919050565b6000608083016000830151610c0c6000860182610bb9565b5060208301518482036020860152610c248282610b4e565b91505060408301518482036040860152610c3e8282610b4e565b9150506060830151610c536060860182610ae8565b508091505092915050565b6000610c6a8383610bf4565b905092915050565b6000602082019050919050565b6000610c8a82610bc8565b610c948185610bd3565b935083602082028501610ca685610be4565b8060005b85811015610ce25784840389528151610cc38582610c5e565b9450610cce83610c72565b925060208a01995050600181019050610caa565b50829750879550505050505092915050565b600060e083016000830151610d0c6000860182610ae8565b506020830151610d1f6020860182610ae8565b5060408301518482036040860152610d378282610b4e565b91505060608301518482036060860152610d518282610b4e565b9150506080830151610d666080860182610bb9565b5060a0830151610d7960a0860182610bb9565b5060c083015184820360c0860152610d918282610c7f565b9150508091505092915050565b60006020820190508181036000830152610db88184610cf4565b905092915050565b600080fd5b600080fd5b7f4e487b7100000000000000000000000000000000000000000000000000000000600052604160045260246000fd5b610e0282610b3d565b810181811067ffffffffffffffff82111715610e2157610e20610dca565b5b80604052505050565b6000610e34610a71565b9050610e408282610df9565b919050565b600067ffffffffffffffff821115610e6057610e5f610dca565b5b610e6982610b3d565b9050602081019050919050565b82818337600083830152505050565b6000610e98610e9384610e45565b610e2a565b905082815260208101848484011115610eb457610eb3610dc5565b5b610ebf848285610e76565b509392505050565b600082601f830112610edc57610edb610dc0565b5b8135610eec848260208601610e85565b91505092915050565b600080600060608486031215610f0e57610f0d610a7b565b5b6000610f1c86828701610aa6565b935050602084013567ffffffffffffffff811115610f3d57610f3c610a80565b5b610f4986828701610ec7565b925050604084013567ffffffffffffffff811115610f6a57610f69610a80565b5b610f7686828701610ec7565b9150509250925092565b600060208284031215610f9657610f95610a7b565b5b600082013567ffffffffffffffff811115610fb457610fb3610a80565b5b610fc084828501610ec7565b91505092915050565b610fd281610ba7565b8114610fdd57600080fd5b50565b600081359050610fef81610fc9565b92915050565b6000806040838503121561100c5761100b610a7b565b5b600061101a85828601610aa6565b925050602061102b85828601610fe0565b9150509250929050565b60006020828403121561104b5761104a610a7b565b5b600061105984828501610fe0565b91505092915050565b600082825260208201905092915050565b600061107e82610af7565b6110888185611062565b9350611098818560208601610b13565b6110a181610b3d565b840191505092915050565b600060208201905081810360008301526110c68184611073565b905092915050565b600080604083850312156110e5576110e4610a7b565b5b600083013567ffffffffffffffff81111561110357611102610a80565b5b61110f85828601610ec7565b925050602083013567ffffffffffffffff8111156111305761112f610a80565b5b61113c85828601610ec7565b9150509250929050565b7f4e487b7100000000000000000000000000000000000000000000000000000000600052603260045260246000fd5b7f4e487b7100000000000000000000000000000000000000000000000000000000600052602260045260246000fd5b600060028204905060018216806111bc57607f821691505b6020821081036111cf576111ce611175565b5b50919050565b60008190508160005260206000209050919050565b60006020601f8301049050919050565b600082821b905092915050565b6000600883026112377fffffffffffffffffffffffffffffffffffffffffffffffffffffffffffffffff826111fa565b61124186836111fa565b95508019841693508086168417925050509392505050565b6000819050919050565b600061127e61127961127484610a85565b611259565b610a85565b9050919050565b6000819050919050565b61129883611263565b6112ac6112a482611285565b848454611207565b825550505050565b600090565b6112c16112b4565b6112cc81848461128f565b505050565b5b818110156112f0576112e56000826112b9565b6001810190506112d2565b5050565b601f82111561133557611306816111d5565b61130f846111ea565b8101602085101561131e578190505b61133261132a856111ea565b8301826112d1565b50505b505050565b600082821c905092915050565b60006113586000198460080261133a565b1980831691505092915050565b60006113718383611347565b9150826002028217905092915050565b61138a82610af7565b67ffffffffffffffff8111156113a3576113a2610dca565b5b6113ad82546111a4565b6113b88282856112f4565b600060209050601f8311600181146113eb57600084156113d9578287015190505b6113e38582611365565b86555061144b565b601f1984166113f9866111d5565b60005b82811015611421578489015182556001820191506020850194506020810190506113fc565b8683101561143e578489015161143a601f891682611347565b8355505b6001600288020188555050505b505050505050565b61145c81610ba7565b82525050565b61146b81610a85565b82525050565b60006040820190506114866000830185611453565b6114936020830184611462565b939250505056fea2646970667358221220364d73975619947da558e79b18d43fc0029b9f2dc01088b9e4e608ac1b36d8db64736f6c63430008110033",
  "linkReferences": {},
  "deployedLinkReferences": {}
}