{
  "_format": "hh-sol-artifact-1",
  "contractName": "JewelChain",
  "sourceName": "contracts/JewelChain.sol",
  "abi": [
    {
      "anonymous": false,
      "inputs": [
        {
          "indexed": true,
          "internalType": "address",
          "name": "owner",
          "type": "address"
        },
        {
          "indexed": false,
          "internalType": "uint256",
          "name": "stoneId",
          "type": "uint256"
        }
      ],
      "name": "NewStoneRegistered",
      "type": "event"
    },
    {
      "inputs": [
        {
          "internalType": "address",
          "name": "participantAddress",
          "type": "address"
        }
      ],
      "name": "getParticipanInformation",
      "outputs": [
        {
          "internalType": "string",
          "name": "participantName",
          "type": "string"
        }
      ],
      "stateMutability": "view",
      "type": "function"
    },
    {
      "inputs": [
        {
          "internalType": "uint256",
          "name": "stoneId",
          "type": "uint256"
        },
        {
          "internalType": "address",
          "name": "newOwner",
          "type": "address"
        }
      ],
      "name": "passOwnership",
      "outputs": [],
      "stateMutability": "nonpayable",
      "type": "function"
    },
    {
      "inputs": [
        {
          "internalType": "string",
          "name": "participantName",
          "type": "string"
        }
      ],
      "name": "registerNewParticipant",
      "outputs": [],
      "stateMutability": "nonpayable",
      "type": "function"
    },
    {
      "inputs": [
        {
          "internalType": "string",
          "name": "origin",
          "type": "string"
        },
        {
          "internalType": "string",
          "name": "characteristic",
          "type": "string"
        }
      ],
      "name": "registerNewStone",
      "outputs": [],
      "stateMutability": "nonpayable",
      "type": "function"
    }
  ],
  "bytecode": "0x608060405234801561001057600080fd5b50610b43806100206000396000f3fe608060405234801561001057600080fd5b506004361061004c5760003560e01c80636210921d146100515780639ba78d811461006d578063a6cd574514610089578063fee23bd7146100b9575b600080fd5b61006b60048036038101906100669190610573565b6100d5565b005b61008760048036038101906100829190610650565b610125565b005b6100a3600480360381019061009e9190610690565b610206565b6040516100b0919061073c565b60405180910390f35b6100d360048036038101906100ce919061075e565b6102dd565b005b80600160003373ffffffffffffffffffffffffffffffffffffffff1673ffffffffffffffffffffffffffffffffffffffff168152602001908152602001600020908161012191906109e2565b5050565b3373ffffffffffffffffffffffffffffffffffffffff16600083815481106101505761014f610ab4565b5b906000526020600020906007020160050160009054906101000a900473ffffffffffffffffffffffffffffffffffffffff1673ffffffffffffffffffffffffffffffffffffffff16036102025780600083815481106101b2576101b1610ab4565b5b906000526020600020906007020160050160006101000a81548173ffffffffffffffffffffffffffffffffffffffff021916908373ffffffffffffffffffffffffffffffffffffffff1602179055505b5050565b60606000600160008473ffffffffffffffffffffffffffffffffffffffff1673ffffffffffffffffffffffffffffffffffffffff168152602001908152602001600020805461025490610805565b80601f016020809104026020016040519081016040528092919081815260200182805461028090610805565b80156102cd5780601f106102a2576101008083540402835291602001916102cd565b820191906000526020600020905b8154815290600101906020018083116102b057829003601f168201915b5050505050905080915050919050565b60008080549050905060008060018160018154018082558091505003906000526020600020906007020190508181600001819055504281600101819055508381600201908161032c91906109e2565b508281600301908161033e91906109e2565b50338160040160006101000a81548173ffffffffffffffffffffffffffffffffffffffff021916908373ffffffffffffffffffffffffffffffffffffffff160217905550338160050160006101000a81548173ffffffffffffffffffffffffffffffffffffffff021916908373ffffffffffffffffffffffffffffffffffffffff1602179055503373ffffffffffffffffffffffffffffffffffffffff167f9dc6dd80448bac528649bfc7c455356256a6c274a277cc2f8c564217aba2219a8360405161040b9190610af2565b60405180910390a250505050565b6000604051905090565b600080fd5b600080fd5b600080fd5b600080fd5b6000601f19601f8301169050919050565b7f4e487b7100000000000000000000000000000000000000000000000000000000600052604160045260246000fd5b61048082610437565b810181811067ffffffffffffffff8211171561049f5761049e610448565b5b80604052505050565b60006104b2610419565b90506104be8282610477565b919050565b600067ffffffffffffffff8211156104de576104dd610448565b5b6104e782610437565b9050602081019050919050565b82818337600083830152505050565b6000610516610511846104c3565b6104a8565b90508281526020810184848401111561053257610531610432565b5b61053d8482856104f4565b509392505050565b600082601f83011261055a5761055961042d565b5b813561056a848260208601610503565b91505092915050565b60006020828403121561058957610588610423565b5b600082013567ffffffffffffffff8111156105a7576105a6610428565b5b6105b384828501610545565b91505092915050565b6000819050919050565b6105cf816105bc565b81146105da57600080fd5b50565b6000813590506105ec816105c6565b92915050565b600073ffffffffffffffffffffffffffffffffffffffff82169050919050565b600061061d826105f2565b9050919050565b61062d81610612565b811461063857600080fd5b50565b60008135905061064a81610624565b92915050565b6000806040838503121561066757610666610423565b5b6000610675858286016105dd565b92505060206106868582860161063b565b9150509250929050565b6000602082840312156106a6576106a5610423565b5b60006106b48482850161063b565b91505092915050565b600081519050919050565b600082825260208201905092915050565b60005b838110156106f75780820151818401526020810190506106dc565b60008484015250505050565b600061070e826106bd565b61071881856106c8565b93506107288185602086016106d9565b61073181610437565b840191505092915050565b600060208201905081810360008301526107568184610703565b905092915050565b6000806040838503121561077557610774610423565b5b600083013567ffffffffffffffff81111561079357610792610428565b5b61079f85828601610545565b925050602083013567ffffffffffffffff8111156107c0576107bf610428565b5b6107cc85828601610545565b9150509250929050565b7f4e487b7100000000000000000000000000000000000000000000000000000000600052602260045260246000fd5b6000600282049050600182168061081d57607f821691505b6020821081036108305761082f6107d6565b5b50919050565b60008190508160005260206000209050919050565b60006020601f8301049050919050565b600082821b905092915050565b6000600883026108987fffffffffffffffffffffffffffffffffffffffffffffffffffffffffffffffff8261085b565b6108a2868361085b565b95508019841693508086168417925050509392505050565b6000819050919050565b60006108df6108da6108d5846105bc565b6108ba565b6105bc565b9050919050565b6000819050919050565b6108f9836108c4565b61090d610905826108e6565b848454610868565b825550505050565b600090565b610922610915565b61092d8184846108f0565b505050565b5b818110156109515761094660008261091a565b600181019050610933565b5050565b601f8211156109965761096781610836565b6109708461084b565b8101602085101561097f578190505b61099361098b8561084b565b830182610932565b50505b505050565b600082821c905092915050565b60006109b96000198460080261099b565b1980831691505092915050565b60006109d283836109a8565b9150826002028217905092915050565b6109eb826106bd565b67ffffffffffffffff811115610a0457610a03610448565b5b610a0e8254610805565b610a19828285610955565b600060209050601f831160018114610a4c5760008415610a3a578287015190505b610a4485826109c6565b865550610aac565b601f198416610a5a86610836565b60005b82811015610a8257848901518255600182019150602085019450602081019050610a5d565b86831015610a9f5784890151610a9b601f8916826109a8565b8355505b6001600288020188555050505b505050505050565b7f4e487b7100000000000000000000000000000000000000000000000000000000600052603260045260246000fd5b610aec816105bc565b82525050565b6000602082019050610b076000830184610ae3565b9291505056fea2646970667358221220dac0e96ac727f01907f59ac4e2775a4b8fe4704f29abe1efbce116917d277cc064736f6c63430008110033",
  "linkReferences": {},
  "deployedLinkReferences": {}
}